:020000040800F2
:10000000F005002001010008BB1E0008B91B000814
:10001000B91E0008290800080B2300080000000092
:100020000000000000000000000000004B1F00085E
:100030002B08000800000000DD1E0008ED1F00086E
:100040001B0100081B0100081B0100081B01000820
:100050001B0100081B0100081B0100081B01000810
:100060001B0100081B0100081B0100081B01000800
:100070001B0100081B0100081B0100081B010008F0
:100080001B0100081B0100081B0100081B010008E0
:100090001B0100081B0100081B0100081B010008D0
:1000A0001B010008C52000081B0100081B010008F7
:1000B000D1200008DD200008000000001B0100081E
:1000C0001B01000800000000000000001B010008E8
:1000D000000000001B0100081B01000800000000D8
:1000E0001B0100081B0100081B010008DFF80CD0F1
:1000F00000F088FB004800474D2A0008F00500206A
:100100000648804706480047FEE7FEE7FEE7FEE7B1
:10011000FEE7FEE7FEE7FEE7FEE7FEE77D200008DC
:10012000ED000008202A04DB203A21FA02F0002129
:10013000704721FA02F3D040C2F1200291400843F7
:100140001946704730B480EA010202F0004530F0F1
:10015000004221F0004013D090B1C30DD40DC2F382
:100160001601C0F31600E41A41F4000140F4000245
:100170007D34914201D3641C00E04900002C02DA76
:1001800030BC002070474FF400000023914201D39F
:10019000891A034340084FEA4101F7D151B1914216
:1001A00002D14FF0004105E002D24FF0010101E021
:1001B0006FF0010103EBC450284430BC00F033BAA7
:1001C0002DE9FE4F804681EA0300C00F0C460090E7
:1001D00021F0004123F00045B8EB0200A94105D20F
:1001E0004046214690461C460B46024623F00040FE
:1001F000104347D0270DC7F30A00C3F30A510290FA
:10020000401A019040286BDAC3F3130040F4801BBE
:100210000098924620B10023D2EB030A63EB0B0B4C
:1002200001985946C0F14002504600F0DBF90646FD
:100230000D4650465946019A00F0E3F910EB0800CC
:100240006141002487EA115284EAE7731A4340D0DF
:10025000009A62B3019A012A4FEA075215DC001B8B
:1002600061EB02014FF0004202EA0752CDE9004281
:10027000001C41F5801132462B4600F01AFA03B0FB
:10028000BDE8F08F40462146F9E7001B61EB020113
:10029000001C41F5801300185B412018A2F50017DF
:1002A00047EB030140EAD570B6196D4111E06D08C6
:1002B0004FEA360645EAC0754FEA0752001B61EB6C
:1002C0000201001C41F5801149084FEA3000001975
:1002D000514132462B4603B0BDE8F04F00F0DAB989
:1002E0000098012240000023D0EB020263EBE07390
:1002F000009821464FEAE074B8EB000061EB04017E
:10030000E9E783F000435BE781F0004158E72DE91E
:10031000FE4F81EA030404F0004421F00041009400
:100320004FF0000B23F0004350EA01045ED052EA84
:1003300003045BD0C3F30A54C1F30A552C44A4F25E
:10034000F3340194A0FB0254C1F3130141F4801172
:10035000C3F3130343F4801301FB024400FB034E79
:10036000840A970A44EA815447EA8357A4FB076842
:1003700002958D0A05FB07854FEA932C04FB0C546C
:100380002705029D4FEA065847EA1637B5EB0805E0
:100390006EEB070C870E920E47EA811742EA831232
:1003A000A7FB0201B6EB0B0164EB00042B0D43EA43
:1003B0000C335E1844EB1C50DA465146E7FB020151
:1003C000C5F313044FEA0B3343EA14534FEA0432E4
:1003D000019C43EA0603A4F10C040294009CCDE9BD
:1003E00000B400F066F903B0BDE8F08F00200146CC
:1003F000F9E72DE9F04D81EA030404F0004B21F008
:10040000004514464FF0000A23F0004150EA05026F
:1004100020D054EA01021DD0C5F30A570246C5F3A5
:100420001303C1F31300C1F30A5640F4801543F4DB
:100430008013A7EB0608101BD64608F2FD3873EBB5
:10044000050002D308F1010801E092185B41B8F100
:10045000000F03DA00200146BDE8F08D00204FF4C4
:100460008011064684460EE0171B73EB050705D383
:10047000121B63EB050306434CEA010C49084FEAE3
:10048000300092185B4150EA0107EDD152EA0300B7
:1004900012D082EA040083EA0501084305D0101B4C
:1004A000AB4106D20122002306E000224FF00043B8
:1004B00002E06FF0010253101AEB06004CEB0851FA
:1004C00010EB0A0041EB0B01BDE8F04D00F0E2B883
:1004D000C10F80EAE0700844CA079623002100F0AB
:1004E000ABB80EB5C10F80EAE0700844CA0700211E
:1004F00040F233438DE80E000A460B4600F0D9F86F
:1005000003B000BD0EB540F2334102910021CDE9A8
:1005100000110A460B4600F0CCF803B000BD70B5E0
:10052000C1F30A5201F000450024C1F3130140F267
:10053000FF3341F480119A4201DA002070BD40F28D
:1005400033439A42A2F2334203DC5242FFF7EAFD00
:1005500000E090402C43F1D0404270BD00F00042DA
:1005600030F000400AD0C10D01F56071C0F31600F3
:1005700042EA0151C208400711437047002001467A
:100580007047000030B5041E71F1000404DB4FF029
:100590000044404264EB0101141E73F1000405DBCA
:1005A0001C464FF00043524263EB04038B4208BFEA
:1005B000824230BD30B5041E71F1000404DB4FF0FF
:1005C0000044404264EB0101141E73F1000405DB9A
:1005D0001C464FF00043524263EB0403994208BFAC
:1005E000904230BD202A04DB203A00FA02F10020BC
:1005F00070479140C2F1200320FA03F31943904061
:100600007047202A06DBCB17203A41FA02F043EA72
:10061000E07306E041FA02F3D040C2F120029140BB
:100620000843194670470029A8BF7047401C49007D
:1006300008BF20F00100704710B4B0FA80FC00FA47
:100640000CF050EA010404BF10BC704749B1CCF172
:10065000200421FA04F411FA0CF118BF01212143FE
:100660000843A3EB0C01CB1D4FEA00614FEA1020B9
:1006700042BF002010BC704700EBC350104400295B
:10068000A4BF10BC7047401C490008BF20F0010007
:1006900010BC704710B5141E73F1000408DA401C3A
:1006A00041F1000192185B411A4301D120F0010091
:1006B00010BD2DE9F04D92469B4611B1B1FA81F281
:1006C00002E0B0FA80F220329046FFF78BFF04463A
:1006D0000F4640EA0A0041EA0B0153465A460843D6
:1006E00013D0114653EA010019D0C8F14002504618
:1006F000FFF718FD05460E46504659464246FFF79D
:1007000071FF084305D0012004E020463946BDE8CA
:10071000F08D0020054346EAE0762C4337430A98E3
:100720006305E40AA0EB08000022FD0A44EA4754EE
:100730000A3002D500200146E9E701051019694198
:10074000DDE9084500196941BDE8F04DA2E770B543
:1007500021F0004303430CD0C1F30A550024D5EB2C
:10076000040564EB0403D617AD1AB34102DB002085
:10077000014670BD201841EB025170BD2DE9F041DA
:10078000054621F000400C46284309D0C4F30A5026
:1007900040F23341884205DD28462146BDE8F0811C
:1007A0002846FBE740F2FE31884210DC0CDB4FEAC2
:1007B000043040EA155050EA053105D0104804F0E5
:1007C000004101430020E9E700200146E6E7A0F2EE
:1007D00033404642C6F1400228462146FFF702FF59
:1007E00007468846284621463246FFF79BFC43468B
:1007F0003A46FFF74FFF3246BDE8F041FFF7F2BE41
:100800000000F03F064C074D06E0E06840F00103B1
:1008100094E8070098471034AC42F6D3FFF76AFC1F
:10082000F031000810320008FEE77047064900204A
:10083000C8610648016941F004010161016941F0A4
:100840004001016170470000D001002000200240FB
:10085000064A0021D16106490A6942F002020A6192
:100860004861086940F0400008617047D0010020ED
:1008700000200240044B0022DA61044A136943F06D
:100880000103136101807047D00100200020024065
:1008900014480022C168CB06134904D5CA6942F046
:1008A0000202CA611022C3685B0705D5CB6943F019
:1008B0000103CB6142F00402C369DB0707D0CB69B7
:1008C00043F00403CB61C16921F00101C161A2F5CC
:1008D0008071013901D0C2607047C16921F0010106
:1008E000C161704700200240D001002070B505466C
:1008F00000F018FA0646114C09E0681C07D025B133
:1009000000F010FA801BA84201D9032070BDE068F6
:10091000C007F2D1E068800601D52020E060E068E1
:10092000C00605D4E069C00702D1E068400703D5DE
:10093000FFF7AEFF012070BD002070BD0020024017
:1009400030B585B00C4600F0EDF80020094D0121CE
:1009500002950090CDE9031004A9684600F044F820
:10096000224600232946022000F09CF800F090F86F
:1009700005B030BD00700008104A10B5A2F140016A
:1009800013680A680E49082805D2DFE800F0060857
:100990000B0D0F111315C86910BD186C00E0506BDA
:1009A000C86110BD986BFBE7D86BF9E7106CF7E7EF
:1009B000D06BF5E7906BF3E7586BF1E7CC000020C4
:1009C0000000002070B5044600F0ACF90546601C3C
:1009D00002D004480078044400F0A4F9401BA0426F
:1009E000FAD370BD240000202DE9F04705462648C3
:1009F0000F460126017E01290FD001218146017693
:100A00002868DFF888804CF25034022808D0A246CB
:100A10002046FFF76BFFA8B131E00220BDE8F08768
:100A20002046FFF763FF08BB0120FFF7FFFE2046CB
:100A3000FFF75CFFD8F81010064621F00401C8F853
:100A400010101CE04FF0FF303860AC6811E0204619
:100A5000FFF7FEFE5046FFF749FFD8F810100600DA
:100A600021F00201C8F8101001D03C6007E004F545
:100A70008064D5E9020100EB8120A042E7D8002183
:100A800089F818103046C9E7D00100200020024044
:100A90000348016941F080010161002070470000B6
:100AA000002002402DE9F05F07461C4888460024DC
:100AB000017E15461E46012909D001218146017695
:100AC0004CF2503A5046FFF711FF18B122E00220D5
:100AD000BDE8F09F012F02D0022F00D00427D3469B
:100AE000DFF83CA0220128463146FFF71BFB81B20C
:100AF00008EB4400FFF7BEFE5846FFF7F7FEDAF8B2
:100B0000102022F00102CAF8102018B9641CE4B2C7
:100B1000BC42E7D3002289F81820D9E7D001002091
:100B200000200240064900200A69120607D5054A3E
:100B30004A60054A4A600969090600D501207047E4
:100B40000020024023016745AB89EFCD2DE9F84F26
:100B5000DFF894A100220AF1040B14464FF0010CB7
:100B60004FF00F090BF1040E0B680CFA04F52B4043
:100B7000AB4271D15D4E4F68A7EB0608B7422BD050
:100B80000DDC032F34D005DC37B3012F19D0022F31
:100B90002FD11BE0112F16D0122F2AD119E0B8F552
:100BA000881F19D006DCB8F5803F15D0B8F5801F36
:100BB0001FD111E0B8F5001F0ED0B8F5041F18D1F1
:100BC0000AE0CA6815E0CA68121D12E0CA68083255
:100BD0000FE0CA680C320CE08A682AB1012A4FF093
:100BE000080203D0456104E0042202E0056100E050
:100BF0000022FF2B01D8074601E000F104074FEA6D
:100C0000840601D9A6F120063D6809FA06F825EA0E
:100C1000080502FA06F645EA06053D604D68ED0056
:100C20005CD5334DAE6946F00106AE61AD6924F086
:100C3000030605F0010500952E4D7719BD68A6073E
:100C4000360F09FA06F825EA0805DFF8AC804045BA
:100C500003D14FF0000810E040E0DFF8A0804045ED
:100C600002D14FF0010808E0DFF89480404502D13E
:100C70004FF0020801E04FF0030808FA06F848EACE
:100C80000508C7F808804D68ED0305D5DAF800506F
:100C90001D43CAF8005004E0DAF800609E43CAF829
:100CA00000604D68DBF80060AD035D4601D51E4372
:100CB00000E09E432E604D68DEF80060ED02754650
:100CC00001D51E4300E09E432E604D68AD020D4DE0
:100CD0002E6801D51E4300E09E432E60641C102C3C
:100CE000FFF442AFBDE8F88F00040140000011108E
:100CF000001002400000014000080140000C0140CB
:100D0000001001400C0401408068084000D0012020
:100D10007047C2684A40C26070470AB101617047BB
:100D20000904FBE7014880687047000024000020A8
:100D300002488168027811448160704724000020D5
:100D4000074810B5016841F010010160032000F070
:100D50009DF8002000F006F800F024F8002010BDF7
:100D60000020024070B50D4D04464FF47A7128788A
:100D7000B1FBF0F00A490968B1FBF0F000F084FC27
:100D800048B9102C07D200222146501E00F05EF810
:100D900000206C6070BD012070BD000024000020A8
:100DA00030000020214808B5816941F001018161CE
:100DB000816901F001010091C16941F08051C16177
:100DC000C06900F080500090032000F05FF800221E
:100DD00011466FF00B0000F039F8002211466FF059
:100DE0000A0000F033F8002211466FF0090000F00D
:100DF0002DF800221146501F00F028F8002211465D
:100E0000101F00F023F800221146901E00F01EF87B
:100E100000221146501E00F019F80548416821F0E3
:100E2000E06141F00071416008BD00000010024027
:100E30000000014000F01F020121914040098000A4
:100E400000F1E020C0F8001170470000F0B40E4B34
:100E50001B680C46C3F30223C3F10705042D00D918
:100E60000425191D072901D2002300E0DB1E0126FD
:100E700006FA05F1491E214099409E40761E164013
:100E80003143F0BC01F01AB80CED00E0064900F067
:100E9000070208684FF6FF03184040EA0220034AA1
:100EA00010430860704700000CED00E00000FA05F8
:100EB000014901200862704700000E4210B529A4C4
:100EC00001461DCC86B08DE81D002AA02A4C006882
:100ED00004900020012923D002293AD010291DD1E5
:100EE00061682268D20119D5C1F38342C9031DF894
:100EF000020009D5616804AAC1F34041515C1F4A50
:100F0000B2FBF1F1484301E01D49484361684902E1
:100F100004D440005FF00301B0FBF1F006B010BD57
:100F2000226AC2F30121012903D1920701D5C80326
:100F3000F4E7022905D1626A920702D549F64040DA
:100F4000ECE70329EAD121688903E7D54FF2244071
:100F5000E4E700F03DF96168C1F38131491C4900C3
:100F6000DAE7000002030405060708090A0B0C0D66
:100F70000E0F1010010200000010024000127A0053
:100F800000093D002DE9F84305460078354CC007BF
:100F900054D0E0690026C00008D4E06940F08050D9
:100FA000E061E069012600F0805000902E48016861
:100FB000C90512D40168804641F480710160FFF7D1
:100FC000B1FE074605E000BFFFF7ACFEC01B64287A
:100FD00023D8D8F80000C005F6D5206A10F4407078
:100FE00021D0A98801F4407181421CD0206A1F4998
:100FF000012220F440700A6000220A602062C007CB
:1010000011D0FFF78FFE074641F2883808E000BF95
:10101000FFF788FEC11B414502D90320BDE8F883D4
:10102000206A8007F4D5206A696820F4407008437C
:1010300020621EB1E06920F08050E06128788007CE
:1010400005D56068A96820F44040084360602878AE
:10105000C00605D56068E96820F480000843606038
:101060000020DBE7001002400070004040044242D4
:101070002DE9F047DFF83C8105460E46D8F8000020
:1010800000F00700B0420CD2D8F8001021F00701A0
:101090003143C8F80010D8F8000000F00700B04253
:1010A00063D12878444C800705D56068A96820F092
:1010B000F000084360602878C00745D068680128C0
:1010C00016D02168022816D0890700294DDA6168F8
:1010D00021F0030101436160FFF724FE69680746C0
:1010E00041F2883001290FD00229814619D027E02A
:1010F00021688903E9E78901E7E700BFFFF712FEEE
:10110000C11B494501D918E081466068C0F38100E0
:101110000128F3D118E000BFFFF704FEC11B4945C9
:101120000BD86068C0F381000228F5D10CE000BF45
:10113000FFF7F8FDC11B494502D90320BDE8F08740
:10114000606810F00C0FF3D1D8F80010404601F0A1
:101150000701B1420BD9016821F007013143016059
:10116000006800F00700B04201D00120E6E72878CF
:10117000400705D56068E96820F4E06008436060D6
:101180002878000706D56068296920F4605040EA95
:10119000C100606000F02CF86168084AC1F30311D7
:1011A000515CC840064908600020FFF7DBFD0020C5
:1011B000C4E70000002002400010024098310008FF
:1011C0003000002001480068704700003000002017
:1011D0000448054900684968044AC1F3C221515CCA
:1011E000C84070473000002000100240A8310008BD
:1011F00012A185B00FC98DE80F0014A0144A006831
:1012000004905168134801F00C03042B10D0082BF4
:101210000ED1C1F38343C9031DF803000AD55168F9
:1012200004AAC1F34041515C0A4A5043B0FBF1F0BB
:1012300005B0704708494843FAE700000203040577
:10124000060708090A0B0C0D0E0F10100102000012
:101250000010024000127A0000093D002DE9F84F0D
:1012600004460078B94DC00748D06868C0F38100D3
:10127000012807D06868C0F38100022809D1686896
:10128000C00306D52868800338D5606800286FD071
:1012900034E06068B0F5803F0BD010B1B0F5A02FFE
:1012A00011D0286820F480302860286820F480203D
:1012B00002E0286840F480302860606888B1FFF759
:1012C00031FD064609E0286840F480202860F0E7F8
:1012D000FFF728FD801B642875D828688003F7D5A0
:1012E0000CE0FFF71FFD064605E000BFFFF71AFD03
:1012F000801B6428F0D828688003F7D42078944EA7
:1013000080074FF001094FF000083BD5686810F0E6
:101310000C0F07D06868C0F38100022809D1686803
:10132000C00306D42868800714D5206901281FD17E
:1013300010E02069B0B1C6F80090FFF7F3FC074653
:1013400005E000BFFFF7EEFCC01B0228C4D82868E8
:101350008007F7D52868616920F0F80040EAC100ED
:1013600028600FE0C6F80080FFF7DCFC074606E0C7
:10137000E9E000BFFFF7D6FCC01B022823D828688D
:101380008007F7D4207800072CD57248A169D9B11D
:10139000C0F80090FFF7C6FC074604E0FFF7C2FC68
:1013A000C01B02280FD8686A8007F7D56A484FF437
:1013B000FA510068B0FBF1F0009000BF0098411EA8
:1013C0000091FAD20EE080E0C0F80080FFF7AAFC9E
:1013D000074604E0FFF7A6FCC01B022875D8686A20
:1013E0008007F7D42078400760D5E8690027C0005F
:1013F00008D4E86940F08050E861E869012700F00E
:101400008050009055480168C90513D4016883468F
:1014100041F480710160FFF785FC824606E000BF61
:10142000FFF780FCA0EB0A0064284ED8DBF8000030
:10143000C005F5D5E06801280AD008B1052813D009
:10144000286A20F001002862286A20F0040002E0E7
:10145000286A40F001002862E06841F2883B98B1B8
:10146000FFF760FC82460BE0286A40F00400286227
:10147000EEE700BFFFF756FCA0EB0A0159455AD82A
:10148000286A8007F6D50CE0FFF74CFC824605E0A1
:10149000FFF748FCA0EB0A0159454CD8286A8007A1
:1014A000F6D41FB1E86920F08050E861E06988B3A4
:1014B0006968C1F38101022945D00228C6F860801D
:1014C00004D0FFF72FFC044638E034E0FFF72AFC95
:1014D000074604E0FFF726FCC01B02282BD828682B
:1014E0008001F7D4206AB0F5803F05D16868A16813
:1014F00020F4003008436860D4E9080108436968B3
:1015000021F4741108436860C6F86090FFF70AFC84
:10151000044606E015E000BFFFF704FC001B0228AC
:1015200009D828688001F7D50BE000BFFFF7FAFB68
:10153000001B022802D90320BDE8F88F286880012B
:10154000F4D40020F8E70120F6E700000010024084
:1015500000004242800442423000002000700040FF
:1015600070B5040003D0607C002610B105E00120B6
:1015700070BD2674204600F043F8022060742046B7
:1015800000F058F8042578BB204600F0A8FC58BBB2
:101590002068416821F007014160A06820B1174828
:1015A000016821F0010101601448001F0168A26870
:1015B00021F46071114301606068411C04D1012075
:1015C000FFF77CFC80B1401E21688A6822F00F0280
:1015D00042EA10428A602168CA6860F30F02CA605A
:1015E000204600F097FC08B16574C0E7E67301205F
:1015F0006073A0736074002070BD0000306C004008
:1016000008B50068084988420DD1FFF751FC07482A
:10161000C16941F00061C161C069054900F0006025
:1016200000900120086008BD002800400010024022
:101630003C04424270B504000AD02068416821F0A1
:1016400008014160FFF76EFB05464FF47A7608E02B
:10165000012070BDFFF766FB401BB04201D903209B
:1016600070BD206840680007F4D5002070BD4FF0C1
:10167000E0210428086903D020F0040008617047C5
:1016800040F00400FAE7704710B5401EB0F1807FCB
:1016900001D3012010BD4FF0E02460610F216017DD
:1016A00000F00CFC0020A06107202061002010BD8C
:1016B00010B5FFF7E8FF10BD7047704730B590F8E0
:1016C0003C20012A20D0012280F83C20022380F80F
:1016D0003D3003685C6824F070045C6003685C68FB
:1016E0000D682C435C6003689C6824F080049C6057
:1016F00003689C6849680C439C6080F83D20002189
:1017000080F83C10084630BD022030BD10B5040002
:1017100003D094F83D0010B107E0012010BD002077
:1017200084F83C00204600F00DF8022084F83D00CB
:10173000211D206800F0D8FC012084F83D00002025
:1017400010BD000008B51E4A01681E4891420ED126
:10175000816941F4006181618069002200F40060C8
:10176000009011461920FFF771FB192013E0B1F129
:10177000804F14D0144A914220D1C16941F0020136
:10178000C161C069002200F00200009011461D20D6
:10179000FFF75CFB1D20BDE80840FFF74BBBC169AC
:1017A00041F00101C161C069002200F00100009018
:1017B00011461C20FFF74AFB1C20ECE708BD000087
:1017C000002C0140001002400004004070B50446A7
:1017D00090F83C00012817D0012584F83C500220E5
:1017E00084F83D002068826822F0770222F47F426C
:1017F00082600868502837D00DDC202859D005DCDD
:1018000088B3102841D151E0022070BD302853D058
:1018100040283AD13FE060282ED070280BD0B0F598
:10182000805F03D0B0F5005F2FD110E020688168A1
:1018300021F0070115E0CB68D1E90121206800F013
:101840008CFC2168886840F0770088601DE0CB68D8
:10185000D1E90121206800F080FC2068816841F412
:101860008041816011E01EE0CA684968206800F08C
:1018700029FD5021206806E0CA684968206800F008
:1018800032FD6021206800F072FC84F83D50002099
:1018900084F83C0070BDCA684968206800F012FDF9
:1018A00040212068EFE700212068ECE71021206844
:1018B000E9E720212068E6E730212068E3E7704768
:1018C00070B50446006801694FF00005C9438907F7
:1018D00015D4C168C943890711D4E91E01610120EB
:1018E0002077206880698007204602D0FFF7E7FF55
:1018F00004E000F0C1F8204600F043F925772068A5
:101900000169C943490717D4C168C943490713D4BA
:101910006FF004010161022020772068806910F4D3
:10192000407F204602D0FFF7CAFF04E000F0A4F891
:10193000204600F026F9257720680169C943090788
:1019400016D4C168C943090712D46FF008010161B8
:10195000042020772068C0698007204602D0FFF766
:10196000AEFF04E000F088F8204600F00AF9257781
:1019700020680169C943C90617D4C168C943C906AB
:1019800013D46FF010010161082020772068C0692E
:1019900010F4407F204602D0FFF791FF04E000F0F2
:1019A0006BF8204600F0EDF8257720680169C943FF
:1019B000C90708D1C168C943C90704D1891E01619B
:1019C000204600F0F7F820680169C943090609D4E8
:1019D000C168C943090605D46FF080010161204642
:1019E000FFF76AFE20680169C943490609D4C16846
:1019F000C943490605D46FF040010161204600F05B
:101A0000DAF820680169C94389060BD4C168C94363
:101A1000890607D46FF0200101612046BDE87040BF
:101A2000FFF74BBE70BD00001FB5016802240F48D0
:101A3000B1F1804F13D00E4A91420FD1C021CDE9B0
:101A4000001469460394FFF781F80320CDE90004F0
:101A500069460848CDF80C40FFF778F81FBD0F2104
:101A6000CDE9001469460394F6E700000008014040
:101A700000040040000C0140704770B5044690F827
:101A80003C000D4601280DD0012684F83C60022060
:101A900084F83D0042B1042A18D0082A2AD00C2A22
:101AA0004DD139E0022070BD206800F069FB20684C
:101AB000816941F0080181612068816921F0040198
:101AC0008161206881692A69114311E0206800F072
:101AD0007FFB2068816941F4006181612068816930
:101AE00021F480618161206881692A6941EA0221CB
:101AF000816124E0206800F097FB2068C16941F013
:101B00000801C1612068C16921F00401C161206838
:101B1000C1692A69114311E0206800F0B1FB206817
:101B2000C16941F40061C1612068C16921F480612B
:101B3000C1612068C1692A6941EA0221C16184F852
:101B40003D60002084F83C0070BD10B5040003D057
:101B500094F83D0010B107E0012010BD002084F88A
:101B60003C00204600F00CF8022084F83D00211DC6
:101B7000206800F0B9FA012084F83D00002010BD73
:101B80007047704710B504460068012200F0DAFA89
:101B900007492068884203D1416C41F40041416407
:101BA0002068016841F001010160002010BD0000C3
:101BB000002C014070477047FEE700002DE9F04718
:101BC000204EDFF88480002406F1840906F1240AFF
:101BD00056F82400002822DD401E09EBC40746F811
:101BE0002400D7E900230AEBC405D5E90001FEF77C
:101BF000E7FA00221346FEF7DDFC06D2D7E9002300
:101C0000D5E90001FEF7DCFA01E000200146C5E954
:101C10000001D5E90023204600F0BCF90DE0D8F81A
:101C20000810072902D0082902D006E0082100E0A8
:101C3000072188F8001000F097FC641C082CC7DB13
:101C4000BDE8F0870C0100200000002070B51646AA
:101C50000D460446082813DA0A4840F82450204666
:101C6000FEF78AFE3246294600F03AFC054A203249
:101C700002EBC402C2E900010248643840F8246063
:101C800070BD00007001002070B51F4886B08169EA
:101C900041F010018161816901F0100104918169B5
:101CA00041F020018161816901F020010491816985
:101CB00041F004018161816901F0040104918169AD
:101CC00041F0080181618069104E00F008004FF476
:101CD00000450490002229463046FFF71EF80024F4
:101CE0001020CDE90004694630460294FEF72EFF2D
:101CF00001200095CDE90104022003906946304699
:101D0000FEF724FF06B070BD00100240000801403D
:101D100010B5154886B0134901604FF47A7100245C
:101D2000C0E901142821C1604FF40071C0E9041416
:101D30008461FFF7EBFC00B1FEE74FF480500090A8
:101D400069460948FFF742FD00B1FEE72020CDE9D2
:101D5000040404A90448FFF7B1FC002800D0FEE702
:101D600006B010BD002C01404C00002010B52748E3
:101D70008EB04FF080410024C0E9001441F2707130
:101D8000C0E90241802104618161FFF7BFFC00B11D
:101D9000FEE74FF48050079007A91C48FFF716FD97
:101DA00000B1FEE71948FFF7D0FE00B1FEE70B9443
:101DB0000BA916480C94FFF781FC00B1FEE76020E8
:101DC000CDE90004042004900022694602940F48E3
:101DD000FFF753FE00B1FEE7042269460B48FFF708
:101DE0004CFE00B1FEE7082269460848FFF745FEB1
:101DF00000B1FEE70C2269460448FFF73EFE00B141
:101E0000FEE70248FFF710FE0EB010BD8C00002068
:101E100010B528488EB026490024C0E9001441F2CC
:101E20007071C0E90241802104618161FFF76EFC9D
:101E300000B1FEE74FF48050079007A91D48FFF757
:101E4000C5FC00B1FEE71B48FFF77FFE00B1FEE7CF
:101E50000B940BA917480C94FFF730FC00B1FEE778
:101E60006020CDE900040420049000226946029419
:101E70001048FFF702FE00B1FEE7042269460D4854
:101E8000FFF7FBFD00B1FEE7082269460948FFF7AE
:101E9000F4FD00B1FEE70C2269460648FFF7EDFDB0
:101EA00000B1FEE70348FFF7BFFD0EB010BD000014
:101EB00000040040CC000020FEE770470907090E2F
:101EC000002806DA00F00F0000F1E02080F8141D71
:101ED000704700F1E02080F800147047704770B53B
:101EE0000446FEF71FFF05464FF47A7606E0FEF73C
:101EF00019FF401BB04201D9032070BD2068406823
:101F00008006F4D52068416841F01001416000204E
:101F100070BD000070B504460068416821F01001F2
:101F20004160FEF7FFFE05464FF47A7607E000BFFA
:101F3000FEF7F8FE401BB04201D9032070BD2068B7
:101F400040688006F4D5002070BD704710B50329A5
:101F500000DA00210E4B0828A3F140021B6812682A
:101F600006D2DFE800F00406080A0C0E101219640D
:101F700010BD516310BD996310BDD96310BD1164CC
:101F800010BDD16310BD916310BD596310BD000039
:101F9000CC00002010B504461046194600F0B2FAF5
:101FA0001049082C88611049A1F140020FD2DFE8E6
:101FB00004F00406080A0C0F1215096806E01168FF
:101FC0000DE0096808E0096803E01168086410BDC5
:101FD0001168C86310BD1168886310BD0968486343
:101FE00010BD000000000020CC00002010B5FEF75E
:101FF0009FFEBDE81040FFF75BBB70B594B00920B1
:10200000012400904FF48030002504940694CDE91B
:1020100001050226CDE907604FF44020099068468B
:10202000FFF71CF900B1FEE70F20CDE90A064FF4D7
:102030008060CDE90C5001210AA80E95FFF718F831
:1020400000B1FEE74FF40070CDE90F400FA8FEF796
:1020500099FF00B1FEE7FFF7B5F84FF47A71B0FBD6
:10206000F1F0FFF711FB0420FFF701FB00221146FE
:10207000501EFEF7EBFE14B070BD00000D48016865
:1020800041F00101016041680B4A11404160016863
:102090000A4A11400160016821F480210160416811
:1020A00021F4FE0141604FF41F0181600449C00327
:1020B00008607047001002400000FFF8FFFFF6FEC6
:1020C00008ED00E00148FFF7FBBB00004C000020DA
:1020D0000148FFF7F5BB00008C0000200148FFF726
:1020E000EFBB0000CC00002070B50268134B144C0D
:1020F0004FF08046984203D0B04201D0A04203D1B5
:1021000022F070054A682A43984203D0B04201D0B9
:10211000A04203D122F44074CA68224322F0800412
:102120004A69224302608A68C2620A6882629842EF
:1021300001D1096901630121416170BD002C014099
:102140000004004010B50123046A8B409C430462E4
:10215000036A8A401343036210BD10B5846842EAE3
:10216000032224F47F440A432243826010BD826824
:1021700022F070020A4342F00701816070470000BC
:1021800030B5026A22F001020262026A4368846981
:1021900024F073050C682C4322F002058A682A4358
:1021A0000A4DA8420BD122F00805CA6823F44073F7
:1021B0002A434D6922F004021D438B692B4343607F
:1021C000846149684163026230BD0000002C014017
:1021D00030B5026A22F010020262026A4368846922
:1021E0000D6824F4E64444EA05248D6822F02002B8
:1021F00042EA05120B4DA8420ED1CD6822F08002B2
:1022000042EA05124D6923F4406343EA85038D6970
:1022100022F0400243EA8503436084614968816398
:10222000026230BD002C014030B5026A22F4807297
:102230000262036A4268C46923F4007324F07305E0
:102240000C682C438D6843EA05230C4DA8420ED13F
:10225000CD6823F4006343EA05234D6922F440521C
:1022600042EA05128D6923F4806342EA0512426056
:10227000C4614968C163036230BD0000002C0140A5
:1022800030B5026A22F480520262046A4268C3696D
:102290000D6823F4E64343EA05238D6824F40054D3
:1022A00044EA0534064DA84204D14D6922F4804227
:1022B00042EA85124260C36149680164046230BD2C
:1022C000002C014010B5036A046A24F00104046282
:1022D000846924F0F00444EA021423F00A020A4359
:1022E0008461026210BD10B5036A23F0100303621B
:1022F0008369046A23F4704343EA023224F0A003A2
:1023000043EA01118261016210BDFEE72DE9F0414F
:102310004F1E00EBC7010446D1E9000115461E46D9
:1023200037F006020DD02A463346FDF7F0FF7F1E38
:1023300004EBC703D3E90023FDF742FF37F00602A1
:10234000F1D1022F25D0042F13D0062F18BFBDE8DE
:10235000F0812A463346FDF7DAFFD4E90A23FDF778
:102360002FFF2A463346FDF7D2FFD4E90823FDF7B5
:1023700027FF2A463346FDF7CAFFD4E90623FDF7B7
:102380001FFF2A463346FDF7C2FFD4E90423FDF7B9
:1023900017FF2A463346FDF7BAFFD4E90223FDF7BB
:1023A0000FFF2A463346FDF7B2FFD4E90023BDE80C
:1023B000F041FDF705BF0000002213461046014919
:1023C000FEF717B80000F03F0122FEF7C0B9002267
:1023D000134610461146FEF70CB802E008C8121F5B
:1023E00008C1002AFAD170477047002001E001C1FE
:1023F000121F002AFBD17047014908607047000096
:10240000340000202DE9F041C1F30A52A2F2FF3658
:102410002F4A304B0D460446142E2FDA002E12DAC6
:10242000FDF7CEFE00221346FEF7C4F84CD2002D75
:10243000BCBF4FF00045002446DB55EA040018BF3E
:10244000254D19D140E0DFF894C02CFA06F705EAD3
:10245000070C5CEA040C08BFBDE8F081FDF7B0FE94
:1024600000221346FEF7A6F82ED2002D03DD4FF40E
:102470008010F0400544BD43002425E0332EC8BF42
:10248000BDE8F081A6F1140C4FF0FF3727FA0CF7E6
:102490003C4208BFBDE8F081FDF736FF002213463D
:1024A000FEF788F810D2002D0DDD142E08BF6D1C2C
:1024B00009D0C6F13400012101FA00F02044A04205
:1024C00038BF6D1C0446BC4329462046BDE8F08158
:1024D0009C7500883CE4377E0000F03FFFFF0F0052
:1024E00070B506460D461046FDF7F2FF0446A81BE0
:1024F000FDF7EEFF2146FDF725FEBDE87040FEF733
:102500002DB800002DE9F047054615480E468146D6
:10251000034600222846FEF74DF84FF0000017D280
:10252000DFF84080414600F0E3F804460F46002201
:102530004B4628463146FDF743FE00F0D9F82246C7
:102540003B46FDF756FF00224346FDF7E0FE00E064
:10255000002100F01FFEBDE8F047FDF7E0BF0000DE
:102560000000F03F0070A7402DE9F0475C4C5E484A
:102570005C4F227800254FF4FA78A0F1400140F634
:10258000B83640F6AC59092A10D2DFE802F005113E
:10259000202F3E4E6F7B9B00002642460021304696
:1025A000FFF754FB761C082EF7DBA560BDE8F0872B
:1025B000002540F2DC573A4631462846FFF746FBF5
:1025C0006D1C082DF7DB0120A06064202BE00025A6
:1025D0004FF4E166314642462846FFF737FB6D1C53
:1025E000082DF7DB0220A0603C201CE0002540F213
:1025F0001A46314642462846FFF728FB6D1C082D37
:10260000F7DB0320A06023200DE000254FF4E176E6
:10261000314642462846FFF719FB6D1C082DF7DBB3
:102620000420A0600F206061C0E7DFF8C0A0002593
:1026300081468846962049F825002C4A08EBC500BB
:102640000021C0E9001253460A462846FFF7A2FCC3
:102650006D1C082DEEDB00253A4631462846FFF773
:10266000F5FA6D1C082DF7DB052009E000253A4638
:1026700000212846FFF7EAFA6D1C082DF7DB06203B
:10268000A06093E7002780464FEA010A00200AEB8A
:10269000C70148F82750C1E9000002460346384602
:1026A000FFF778FC7F1C082FF0DBB04600274E4672
:1026B000324641463846FFF7C9FA7F1C082FF7DB40
:1026C00007200AE000264F463A4600213046FFF731
:1026D000BDFA761C082EF7DB0820A060257065E7A0
:1026E00000000020A0BB0D007001002000C062406F
:1026F0002DE9F04DC84A002490B0914205DA21F04E
:102700000043934201D805D120B110B0BDE8F04D8F
:10271000FFF75ABEB1F5801F1BDA53EA000209D059
:10272000002911DA0120FFF767FE10B0BDE8F04D77
:10273000FFF74DBE0220FFF75FFEFFF73DFE10B032
:1027400081F00041BDE8F08D6FF035043622FDF7D1
:10275000FEFF04EB2152C1F31308B049A2F2FF338C
:10276000414401F4801282F07F6103EB225281F038
:102770004051009241EA08010022A94BFDF7C1FD3A
:10278000044608F10200A74EC0F313000D467E4434
:10279000032867D2D6E900232046FDF7F3FE1ED1B9
:1027A0000098002802BFD6E9000110B0BDE8F08D06
:1027B000FDF797FE07460C469B4A9C4BFDF7A7FD8D
:1027C00006460D469A4A9B4B38462146FDF79FFD2B
:1027D00010B032462B46BDE8F04DFDF7F1BC4FF08E
:1027E0005532954B20462946FDF791FD0022934B2B
:1027F000FDF78AFD06460F4622462B46104619462F
:10280000FDF785FD32463B46FDF781FD0646009803
:102810000F46F0B1FDF765FE80468A46824A834B3B
:10282000FDF775FD32463B46FDF76EFD22462B4611
:10283000FDF767FD05460C467D4A7E4B40465146F6
:10284000FDF765FD10B02A462346BDE8F04DFDF7C3
:1028500058BD0B4610B0324620462946BDE8F04D23
:10286000FDF74FBD00224FF080432046FDF7A8FC46
:1028700002460B4620462946FDF7BBFD06460F469D
:102880000098FDF72EFECDE9040132463B46104686
:102890003946FDF73CFD0C9069480C9A4044019084
:1028A00009910B461046FDF732FD82460246654807
:1028B0008B46C8F151080B4608F5D7280321784408
:1028C000FFF724FD52465B46FDF721FD0A905E4866
:1028D0000D9152465B4604217844FFF717FD099B92
:1028E0000C9AFDF714FD844601980D9B40EA0808F8
:1028F00060460A9AFDF764FC83460891B8F1000F20
:102900004EDD4FF0FF3220462946FDF720FF2246DC
:102910002B46FDF7FCFC804600988A4660B3DDE953
:102920000401414A414BFDF7F2FC099100905A46DF
:1029300040465146089BFDF743FC32463B46FDF7B7
:10294000E6FC099B009AFDF73BFC42465346FDF727
:10295000DBFC22462B46FDF7D4FC04460D46DDE9A0
:102960000401334A334BFDF7D2FC10B022462B460C
:10297000BDE8F04DFDF7C5BC5A464046089BFDF743
:102980001FFC32463B46FDF7C2FC42465346FDF76C
:10299000BBFC10B022462B46BDE8F04DFDF7B4BCA1
:1029A000009840B3DDE904011F4A204BFDF7AFFC5E
:1029B00080468A465A4620462946089BFDF7A1FCD8
:1029C00032463B46FDF7A3FC42465346FDF799FCD1
:1029D00022462B46FDF795FC04460D46DDE9040131
:1029E000134A144BFDF793FC10B022462B46BDE86A
:1029F000F04DFDF786BC0B465A4620462946FDF7AA
:102A000080FC32463B46FDF782FC10B022462B4646
:102A1000BDE8F04DFDF778BC0000F07F645F090071
:102A20000000F03F560A0000763C7935EF39EA3D68
:102A30000000E0FE422EE63F5555D53F0000E03F46
:102A400086EBF9FFEE080000EC08000008B5002551
:102A5000FEF776F9FFF7D1FAFFF716F9FE48FD49C0
:102A60000160691E41604FF480718160FEF778FD5E
:102A700000B1FEE7FFF7CCF9FFF778F9FFF748F967
:102A8000F6480068F64EDFF8DC83A6F1400AA8B3EA
:102A9000642802D94FF0640000E002D14FF0010237
:102AA00009E03C2804D0232804D00F2827D004E0D4
:102AB000022200E0032288F8002040F6B83100240A
:102AC00000FB01F9B3466421B9FBF1F0FDF71AFDF3
:102AD000FFF798FC06460F46FDF721FD4BF8240052
:102AE0000AEBC4003246C0E900673B462046FFF7C8
:102AF00051FA641C082CE6DB012036E001E00422D8
:102B0000D9E7002088F800000146FFF71FFA0021EE
:102B10000120FFF71BFA00210220FFF717FA00211E
:102B20000320FFF713FA00210420FFF70FFA00211A
:102B30000520FFF70BFA00210620FFF707FA002116
:102B40000720FFF703FA00245746002107EBC400D3
:102B500046F82410C0E900110A460B462046FFF74C
:102B600019FA641C082CF0DB00208146BA480021C9
:102B70005430FFF707F8B84804215430FFF702F843
:102B8000B54808215430FEF7FDFFB3480C215430FE
:102B9000FEF7F8FFB04800219430FEF7F3FFAE488F
:102BA00004219430FEF7EEFFAB4808219430FEF785
:102BB000E9FFA9480C219430FEF7E4FF0020A84962
:102BC0000646643901F1840202EBC00741F8206037
:102BD0000023C7E90033401C0828F5DBDFF888B282
:102BE0004FF4FA7744460120FDF7ECFE2069401CC3
:102BF0002061B84200DD27614FF40041D8465846B5
:102C0000FEF787F8A068092801D0FEF7D7FF10214A
:102C10004046FEF779F830B16068401C6060B0F55E
:102C20007A7F22D0B2E0012D7ED0022D7DD0032DFF
:102C300018D06068B0B12069B84213D1206A26610B
:102C4000401C2062A068072870D00828FCD020789B
:102C50000521401CC0B2B0FBF1F201FB1200207054
:102C6000FFF782FC00256660BDE70020FDF784FECB
:102C700005007DD0DFF8F481002243461046FFF7BF
:102C800089F9002243460120FFF784F900224346D8
:102C90000220FFF77FF9002243460320FFF77AF96D
:102CA000002243460420FFF775F900224346052021
:102CB000FFF770F9002243460620FFF76BF9002268
:102CC00043460720FFF766F90A20FDF77BFE002246
:102CD00013461046FFF75EF9002213460120FFF766
:102CE00059F9002213460220FFF754F90022134637
:102CF0000320FFF74FF9002213460420FFF74AF99B
:102D0000002213460520FFF745F90022134606204E
:102D1000FFF740F9002213460720FFF73BF90A208E
:102D2000FDF750FE284602E01CE22AE22BE2FDF706
:102D3000D8FB054688462A4643460020FFF72AF975
:102D40002A4643460120FFF725F92A46434602203A
:102D5000FFF720F92A4643460320FFF71BF92A46CE
:102D600043460420FFF716F92A464346052000E0B3
:102D70000BE0FFF70FF92A4643460620FFF70AF952
:102D80002A4643460720FFF705F901256068A0F5AC
:102D9000A061DC396CD102250020FDF7EDFDDFF8E4
:102DA000CC800022009043461046FFF7F3F8002243
:102DB00043460120FFF7EEF8002243460220FFF7CA
:102DC000E9F8002243460320FFF7E4F800224346D7
:102DD0000420FFF7DFF8002243460520FFF7DAF86A
:102DE000002243460620FFF7D5F80022434607207D
:102DF000FFF7D0F80A20FDF7E5FD00221346104644
:102E0000FFF7C8F8002213460120FFF7C3F800229D
:102E100013460220FFF7BEF8002213460320FFF7F7
:102E2000B9F8002213460420FFF7B4F80022134635
:102E30000520FFF7AFF8002213460620FFF7AAF897
:102E4000002213460720FFF7A5F80A20FDF7BAFD78
:102E500000980EE0002800403800002000700008B4
:102E60007001002000000020000801400070A74011
:102E70002BE0FDF736FB804642460B4600200091D2
:102E8000FFF788F842460120009BFFF783F842468F
:102E90000220009BFFF77EF842460320009BFFF7CD
:102EA00079F842460420009BFFF774F8424605205B
:102EB000009BFFF76FF842460620009BFFF76AF879
:102EC00042460720009BFFF765F86068A0F5306177
:102ED000B8397FF4C9AE0325B9F1000F7DD008469B
:102EE000FDF72EFD002081460020FDF745FDDFF8AF
:102EF0009C820022009043461046FFF74BF80022C8
:102F000043460120FFF746F8002243460220FFF720
:102F100041F8002243460320FFF73CF800224346D5
:102F20000420FFF737F8002243460520FFF732F868
:102F3000002243460620FFF72DF8002243460720D3
:102F4000FFF728F89620FDF73DFD002213461046B6
:102F5000FFF720F8002213460120FFF71BF800229C
:102F600013460220FFF716F8002213460320FFF74E
:102F700011F8002213460420FFF70CF80022134634
:102F80000520FFF707F8002213460620FFF702F896
:102F9000002213460720FEF7FDFF9620FDF712FDE5
:102FA000002243461046FEF7F5FF0022434601206B
:102FB000FEF7F0FF002243460220FEF7EBFF00225F
:102FC00043460320FEF7E6FF002243460420FEF7B7
:102FD000E1FF00224346052000E0BDE0FEF7DAFFF6
:102FE000002243460620FEF7D5FF00224346072075
:102FF000FEF7D0FF9620FDF7E5FC002213461046B1
:10300000FEF7C8FF002213460120FEF7C3FF00228F
:1030100013460220FEF7BEFF002213460320FEF7F0
:10302000B9FF002213460420FEF7B4FF0022134626
:103030000520FEF7AFFF002213460620FEF7AAFF89
:10304000002213460720FEF7A5FF9620FDF7BAFCE5
:10305000002243461046FEF79DFF00224346012012
:10306000FEF798FF002243460220FEF793FF00225E
:1030700043460320FEF78EFF002243460420FEF75E
:1030800089FF002243460520FEF784FF00224346C5
:103090000620FEF77FFF002243460720FEF77AFF57
:1030A0009620FDF78FFC002213461046FEF772FFB4
:1030B000002213460120FEF76DFF00221346022076
:1030C000FEF768FF002213460320FEF763FF00228D
:1030D00013460420FEF75EFF002213460520FEF78C
:1030E00059FF002213460620FEF754FF0022134624
:1030F0000720FEF74FFF9620FDF764FC0098FDF7D0
:10310000F0F9804642460B4600200091FEF742FF50
:1031100042460120009BFEF73DFF42460220009BF5
:10312000FEF738FF42460320009BFEF733FF42467E
:103130000420009BFEF72EFF42460520009BFEF771
:1031400029FF42460620009BFEF724FF4246072047
:10315000009BFEF71FFF46E500206169FDF7F0FBCD
:103160000120C0E6DAE900010022094BFDF70AFA66
:1031700001D2052000E006202070FFF7F5F9666017
:1031800070E50720F8E70920A0606BE50070A74014
:1031900000000840FDF7F2BA000000000000000047
:1031A00001020304060708090000000001020304ED
:1031B00004FA97999999D93FAF788E1DC571CC3F84
:1031C0009FC678D0099AC33F935555555555E53F4D
:1031D000599322942449D23FDE03CB966446C73FDD
:1031E00044523EDF12F1C23F000000000000000028
:1031F000103200080000002038000000DA23000828
:103200004832000838000020B8050000EA23000812
:1032100000000000000000000000000000000000AE
:10322000F4010000000000000000000000000000A9
:10323000000000000100000010000000000000007D
:0832400000A24A040000000096
:04000005080000ED02
:00000001FF
