:020000040800F2
:10000000E805002001010008071D0008C9190008C3
:10001000051D0008390600080F2100080000000037
:10002000000000000000000000000000971D000814
:100030003B06000800000000291D0008F11D000813
:100040001B0100081B0100081B0100081B01000820
:100050001B0100081B0100081B0100081B01000810
:100060001B0100081B0100081B0100081B01000800
:100070001B0100081B0100081B0100081B010008F0
:100080001B0100081B0100081B0100081B010008E0
:100090001B0100081B0100081B0100081B010008D0
:1000A0001B010008C91E00081B0100081B010008F5
:1000B000D51E0008E11E0008000000001B0100081A
:1000C0001B01000800000000000000001B010008E8
:1000D000000000001B0100081B01000800000000D8
:1000E0001B0100081B0100081B010008DFF80CD0F1
:1000F00000F090FA00480047D9230008E8050020E6
:100100000648804706480047FEE7FEE7FEE7FEE7B1
:10011000FEE7FEE7FEE7FEE7FEE7FEE7811E0008DA
:10012000ED000008202A04DB203A21FA02F0002129
:10013000704721FA02F3D040C2F1200291400843F7
:100140001946704730B480EA010202F0004530F0F1
:10015000004221F0004013D090B1C30DD40DC2F382
:100160001601C0F31600E41A41F4000140F4000245
:100170007D34914201D3641C00E04900002C02DA76
:1001800030BC002070474FF400000023914201D39F
:10019000891A034340084FEA4101F7D151B1914216
:1001A00002D14FF0004105E002D24FF0010101E021
:1001B0006FF0010103EBC450284430BC00F051B98A
:1001C0002DE9FE4F804681EA0300C00F0C460090E7
:1001D00021F0004123F00045B8EB0200A94105D20F
:1001E0004046214690461C460B46024623F00040FE
:1001F000104347D0270DC7F30A00C3F30A510290FA
:10020000401A019040286BDAC3F3130040F4801BBE
:100210000098924620B10023D2EB030A63EB0B0B4C
:1002200001985946C0F14002504600F0F9F80646E0
:100230000D4650465946019A00F001F910EB0800AE
:100240006141002487EA115284EAE7731A4340D0DF
:10025000009A62B3019A012A4FEA075215DC001B8B
:1002600061EB02014FF0004202EA0752CDE9004281
:10027000001C41F5801132462B4600F038F903B0DE
:10028000BDE8F08F40462146F9E7001B61EB020113
:10029000001C41F5801300185B412018A2F50017DF
:1002A00047EB030140EAD570B6196D4111E06D08C6
:1002B0004FEA360645EAC0754FEA0752001B61EB6C
:1002C0000201001C41F5801149084FEA3000001975
:1002D000514132462B4603B0BDE8F04F00F0F8B86C
:1002E0000098012240000023D0EB020263EBE07390
:1002F000009821464FEAE074B8EB000061EB04017E
:10030000E9E783F000435BE781F0004158E7C10F64
:1003100080EAE0700844CA079623002100F0AAB8DA
:100320000EB5C10F80EAE0700844CA07002140F210
:1003300033438DE80E000A460B4600F0D8F803B0B0
:1003400000BD0EB540F2334102910021CDE900110C
:100350000A460B4600F0CBF803B000BD70B5C1F300
:100360000A5201F000450024C1F3130140F2FF33AB
:1003700041F480119A4201DA002070BD40F233430B
:100380009A42A2F2334203DC5242FFF7CBFE00E076
:1003900090402C43F1D0404270BD00F0004230F05C
:1003A00000400AD0C10D01F56071C0F3160042EAA9
:1003B0000151C208400711437047002001467047B1
:1003C00030B5041E71F1000404DB4FF000444042DC
:1003D00064EB0101141E73F1000405DB1C464FF0B1
:1003E0000043524263EB04038B4208BF824230BD9C
:1003F00030B5041E71F1000404DB4FF000444042AC
:1004000064EB0101141E73F1000405DB1C464FF080
:100410000043524263EB0403994208BF904230BD4F
:10042000202A04DB203A00FA02F1002070479140B4
:10043000C2F1200320FA03F3194390407047202AA9
:1004400006DBCB17203A41FA02F043EAE07306E0FC
:1004500041FA02F3D040C2F120029140084319460C
:1004600070470029A8BF7047401C490008BF20F012
:100470000100704710B4B0FA80FC00FA0CF050EAAA
:10048000010404BF10BC704749B1CCF1200421FA2B
:1004900004F411FA0CF118BF012121430843A3EB26
:1004A0000C01CB1D4FEA00614FEA102042BF002033
:1004B00010BC704700EBC35010440029A4BF10BC0F
:1004C0007047401C490008BF20F0010010BC704775
:1004D00010B5141E73F1000408DA401C41F100014C
:1004E00092185B411A4301D120F0010010BD2DE9A3
:1004F000F04D92469B4611B1B1FA81F202E0B0FA9A
:1005000080F220329046FFF78BFF04460F4640EA08
:100510000A0041EA0B0153465A46084313D01146DC
:1005200053EA010019D0C8F140025046FFF7FAFD26
:1005300005460E46504659464246FFF771FF0843AE
:1005400005D0012004E020463946BDE8F08D0020AA
:10055000054346EAE0762C4337430A986305E40AEC
:10056000A0EB08000022FD0A44EA47540A3002D5F5
:1005700000200146E9E7010510196941DDE9084558
:1005800000196941BDE8F04DA2E700002DE9F041F6
:10059000054621F000400C46284309D0C4F30A5018
:1005A00040F23341884205DD28462146BDE8F0810E
:1005B0002846FBE740F2FE31884210DC0CDB4FEAB4
:1005C000043040EA155050EA053105D0104804F0D7
:1005D000004101430020E9E700200146E6E7A0F2E0
:1005E00033404642C6F1400228462146FFF718FF35
:1005F00007468846284621463246FFF793FD434684
:100600003A46FFF765FF3246BDE8F041FFF708BF05
:100610000000F03F064C074D06E0E06840F00103A3
:1006200094E8070098471034AC42F6D3FFF762FD18
:100630005027000870270008FEE770470649002091
:10064000C8610648016941F004010161016941F096
:100650004001016170470000C801002000200240F5
:10066000064A0021D16106490A6942F002020A6184
:100670004861086940F0400008617047C8010020E7
:1006800000200240044B0022DA61044A136943F05F
:100690000103136101807047C8010020002002405F
:1006A00014480022C168CB06134904D5CA6942F038
:1006B0000202CA611022C3685B0705D5CB6943F00B
:1006C0000103CB6142F00402C369DB0707D0CB69A9
:1006D00043F00403CB61C16921F00101C161A2F5BE
:1006E0008071013901D0C2607047C16921F00101F8
:1006F000C161704700200240C801002070B5054666
:1007000000F018FA0646114C09E0681C07D025B124
:1007100000F010FA801BA84201D9032070BDE068E8
:10072000C007F2D1E068800601D52020E060E068D3
:10073000C00605D4E069C00702D1E068400703D5D0
:10074000FFF7AEFF012070BD002070BD0020024009
:1007500030B585B00C4600F0EDF80020094D0121C0
:1007600002950090CDE9031004A9684600F044F812
:10077000224600232946022000F09CF800F090F861
:1007800005B030BD00700008104A10B5A2F140015C
:1007900013680A680E49082805D2DFE800F0060849
:1007A0000B0D0F111315C86910BD186C00E0506BCC
:1007B000C86110BD986BFBE7D86BF9E7106CF7E7E1
:1007C000D06BF5E7906BF3E7586BF1E7C4000020BE
:1007D0000000002070B5044600F0ACF90546601C2E
:1007E00002D004480078044400F0A4F9401BA04261
:1007F000FAD370BD200000202DE9F04705462648B9
:100800000F460126017E01290FD001218146017684
:100810002868DFF888804CF25034022808D0A246BD
:100820002046FFF76BFFA8B131E00220BDE8F0875A
:100830002046FFF763FF08BB0120FFF7FFFE2046BD
:10084000FFF75CFFD8F81010064621F00401C8F845
:1008500010101CE04FF0FF303860AC6811E020460B
:10086000FFF7FEFE5046FFF749FFD8F810100600CC
:1008700021F00201C8F8101001D03C6007E004F537
:100880008064D5E9020100EB8120A042E7D8002175
:1008900089F818103046C9E7C8010020002002403E
:1008A0000348016941F080010161002070470000A8
:1008B000002002402DE9F05F07461C4888460024CE
:1008C000017E15461E46012909D001218146017687
:1008D0004CF2503A5046FFF711FF18B122E00220C7
:1008E000BDE8F09F012F02D0022F00D00427D3468D
:1008F000DFF83CA0220128463146FFF713FC81B205
:1009000008EB4400FFF7BEFE5846FFF7F7FEDAF8A3
:10091000102022F00102CAF8102018B9641CE4B2B9
:10092000BC42E7D3002289F81820D9E7C80100208B
:1009300000200240064900200A69120607D5054A30
:100940004A60054A4A600969090600D501207047D6
:100950000020024023016745AB89EFCD2DE9F84F18
:10096000DFF894A100220AF1040B14464FF0010CA9
:100970004FF00F090BF1040E0B680CFA04F52B4035
:10098000AB4271D15D4E4F68A7EB0608B7422BD042
:100990000DDC032F34D005DC37B3012F19D0022F23
:1009A0002FD11BE0112F16D0122F2AD119E0B8F544
:1009B000881F19D006DCB8F5803F15D0B8F5801F28
:1009C0001FD111E0B8F5001F0ED0B8F5041F18D1E3
:1009D0000AE0CA6815E0CA68121D12E0CA68083247
:1009E0000FE0CA680C320CE08A682AB1012A4FF085
:1009F000080203D0456104E0042202E0056100E042
:100A00000022FF2B01D8074601E000F104074FEA5E
:100A1000840601D9A6F120063D6809FA06F825EA00
:100A2000080502FA06F645EA06053D604D68ED0048
:100A30005CD5334DAE6946F00106AE61AD6924F078
:100A4000030605F0010500952E4D7719BD68A60730
:100A5000360F09FA06F825EA0805DFF8AC804045AC
:100A600003D14FF0000810E040E0DFF8A0804045DF
:100A700002D14FF0010808E0DFF89480404502D130
:100A80004FF0020801E04FF0030808FA06F848EAC0
:100A90000508C7F808804D68ED0305D5DAF8005061
:100AA0001D43CAF8005004E0DAF800609E43CAF81B
:100AB00000604D68DBF80060AD035D4601D51E4364
:100AC00000E09E432E604D68DEF80060ED02754642
:100AD00001D51E4300E09E432E604D68AD020D4DD2
:100AE0002E6801D51E4300E09E432E60641C102C2E
:100AF000FFF442AFBDE8F88F000401400000111080
:100B0000001002400000014000080140000C0140BC
:100B1000001001400C0401408068084000D0012012
:100B20007047C2684A40C26070470AB101617047AD
:100B30000904FBE70148806870470000200000209E
:100B400002488168027811448160704720000020CB
:100B5000074810B5016841F010010160032000F062
:100B60009DF8002000F006F800F024F8002010BDE9
:100B70000020024070B50D4D04464FF47A7128787C
:100B8000B1FBF0F00A490968B1FBF0F000F084FC19
:100B900048B9102C07D200222146501E00F05EF802
:100BA00000206C6070BD012070BD0000200000209E
:100BB0002C000020214808B5816941F001018161C4
:100BC000816901F001010091C16941F08051C16169
:100BD000C06900F080500090032000F05FF8002210
:100BE00011466FF00B0000F039F8002211466FF04B
:100BF0000A0000F033F8002211466FF0090000F0FF
:100C00002DF800221146501F00F028F8002211464E
:100C1000101F00F023F800221146901E00F01EF86D
:100C200000221146501E00F019F80548416821F0D5
:100C3000E06141F08061416008BD000000100240A9
:100C40000000014000F01F02012191404009800096
:100C500000F1E020C0F8001170470000F0B40E4B26
:100C60001B680C46C3F30223C3F10705042D00D90A
:100C70000425191D072901D2002300E0DB1E0126EF
:100C800006FA05F1491E214099409E40761E164005
:100C90003143F0BC01F038B80CED00E0064900F03B
:100CA000070208684FF6FF03184040EA0220034A93
:100CB00010430860704700000CED00E00000FA05EA
:100CC000014901200862704700000E4210B529A4B6
:100CD00001461DCC86B08DE81D002AA02A4C006874
:100CE00004900020012923D002293AD010291DD1D7
:100CF00061682268D20119D5C1F38342C9031DF886
:100D0000020009D5616804AAC1F34041515C1F4A41
:100D1000B2FBF1F1484301E01D49484361684902D3
:100D200004D440005FF00301B0FBF1F006B010BD49
:100D3000226AC2F30121012903D1920701D5C80318
:100D4000F4E7022905D1626A920702D549F64040CC
:100D5000ECE70329EAD121688903E7D54FF2244063
:100D6000E4E700F03DF96168C1F38131491C4900B5
:100D7000DAE7000002030405060708090A0B0C0D58
:100D80000E0F1010010200000010024000127A0045
:100D900000093D002DE9F84305460078354CC007B1
:100DA00054D0E0690026C00008D4E06940F08050CB
:100DB000E061E069012600F0805000902E48016853
:100DC000C90512D40168804641F480710160FFF7C3
:100DD000B1FE074605E000BFFFF7ACFEC01B64286C
:100DE00023D8D8F80000C005F6D5206A10F440706A
:100DF00021D0A98801F4407181421CD0206A1F498A
:100E0000012220F440700A6000220A602062C007BC
:100E100011D0FFF78FFE074641F2883808E000BF87
:100E2000FFF788FEC11B414502D90320BDE8F883C6
:100E3000206A8007F4D5206A696820F4407008436E
:100E400020621EB1E06920F08050E06128788007C0
:100E500005D56068A96820F44040084360602878A0
:100E6000C00605D56068E96820F48000084360602A
:100E70000020DBE7001002400070004040044242C6
:100E80002DE9F047DFF83C8105460E46D8F8000012
:100E900000F00700B0420CD2D8F8001021F0070192
:100EA0003143C8F80010D8F8000000F00700B04245
:100EB00063D12878444C800705D56068A96820F084
:100EC000F000084360602878C00745D068680128B2
:100ED00016D02168022816D0890700294DDA6168EA
:100EE00021F0030101436160FFF724FE69680746B2
:100EF00041F2883001290FD00229814619D027E01C
:100F000021688903E9E78901E7E700BFFFF712FEDF
:100F1000C11B494501D918E081466068C0F38100D2
:100F20000128F3D118E000BFFFF704FEC11B4945BB
:100F30000BD86068C0F381000228F5D10CE000BF37
:100F4000FFF7F8FDC11B494502D90320BDE8F08732
:100F5000606810F00C0FF3D1D8F80010404601F093
:100F60000701B1420BD9016821F00701314301604B
:100F7000006800F00700B04201D00120E6E72878C1
:100F8000400705D56068E96820F4E06008436060C8
:100F90002878000706D56068296920F4605040EA87
:100FA000C100606000F02CF86168084AC1F30311C9
:100FB000515CC840064908600020FFF7DBFD0020B7
:100FC000C4E700000020024000100240382700085B
:100FD0002C00002001480068704700002C00002011
:100FE0000448054900684968044AC1F3C221515CBC
:100FF000C84070472C00002000100240482700081D
:1010000012A185B00FC98DE80F0014A0144A006822
:1010100004905168134801F00C03042B10D0082BE6
:101020000ED1C1F38343C9031DF803000AD55168EB
:1010300004AAC1F34041515C0A4A5043B0FBF1F0AD
:1010400005B0704708494843FAE700000203040569
:10105000060708090A0B0C0D0E0F10100102000004
:101060000010024000127A0000093D002DE9F84FFF
:1010700004460078B94DC00748D06868C0F38100C5
:10108000012807D06868C0F38100022809D1686888
:10109000C00306D52868800338D5606800286FD063
:1010A00034E06068B0F5803F0BD010B1B0F5A02FF0
:1010B00011D0286820F480302860286820F480202F
:1010C00002E0286840F480302860606888B1FFF74B
:1010D00031FD064609E0286840F480202860F0E7EA
:1010E000FFF728FD801B642875D828688003F7D592
:1010F0000CE0FFF71FFD064605E000BFFFF71AFDF5
:10110000801B6428F0D828688003F7D42078944E98
:1011100080074FF001094FF000083BD5686810F0D8
:101120000C0F07D06868C0F38100022809D16868F5
:10113000C00306D42868800714D5206901281FD170
:1011400010E02069B0B1C6F80090FFF7F3FC074645
:1011500005E000BFFFF7EEFCC01B0228C4D82868DA
:101160008007F7D52868616920F0F80040EAC100DF
:1011700028600FE0C6F80080FFF7DCFC074606E0B9
:10118000E9E000BFFFF7D6FCC01B022823D828687F
:101190008007F7D4207800072CD57248A169D9B10F
:1011A000C0F80090FFF7C6FC074604E0FFF7C2FC5A
:1011B000C01B02280FD8686A8007F7D56A484FF429
:1011C000FA510068B0FBF1F0009000BF0098411E9A
:1011D0000091FAD20EE080E0C0F80080FFF7AAFC90
:1011E000074604E0FFF7A6FCC01B022875D8686A12
:1011F0008007F7D42078400760D5E8690027C00051
:1012000008D4E86940F08050E861E869012700F0FF
:101210008050009055480168C90513D40168834681
:1012200041F480710160FFF785FC824606E000BF53
:10123000FFF780FCA0EB0A0064284ED8DBF8000022
:10124000C005F5D5E06801280AD008B1052813D0FB
:10125000286A20F001002862286A20F0040002E0D9
:10126000286A40F001002862E06841F2883B98B1AA
:10127000FFF760FC82460BE0286A40F00400286219
:10128000EEE700BFFFF756FCA0EB0A0159455AD81C
:10129000286A8007F6D50CE0FFF74CFC824605E093
:1012A000FFF748FCA0EB0A0159454CD8286A800793
:1012B000F6D41FB1E86920F08050E861E06988B396
:1012C0006968C1F38101022945D00228C6F860800F
:1012D00004D0FFF72FFC044638E034E0FFF72AFC87
:1012E000074604E0FFF726FCC01B02282BD828681D
:1012F0008001F7D4206AB0F5803F05D16868A16805
:1013000020F4003008436860D4E9080108436968A4
:1013100021F4741108436860C6F86090FFF70AFC76
:10132000044606E015E000BFFFF704FC001B02289E
:1013300009D828688001F7D50BE000BFFFF7FAFB5A
:10134000001B022802D90320BDE8F88F286880011D
:10135000F4D40020F8E70120F6E700000010024076
:1013600000004242800442422C00002000700040F5
:1013700070B5040003D0607C002610B105E00120A8
:1013800070BD2674204600F043F8022060742046A9
:1013900000F058F8042578BB204600F0C6FC58BB86
:1013A0002068416821F007014160A06820B117481A
:1013B000016821F0010101601448001F0168A26862
:1013C00021F46071114301606068411C04D1012067
:1013D000FFF77CFC80B1401E21688A6822F00F0272
:1013E00042EA10428A602168CA6860F30F02CA604C
:1013F000204600F0B5FC08B16574C0E7E673012033
:101400006073A0736074002070BD0000306C0040F9
:1014100008B50068084988420DD1FFF751FC07481C
:10142000C16941F00061C161C069054900F0006017
:1014300000900120086008BD002800400010024014
:101440003C04424270B504000AD02068416821F093
:1014500008014160FFF76EFB05464FF47A7608E01D
:10146000012070BDFFF766FB401BB04201D903208D
:1014700070BD206840680007F4D5002070BD4FF0B3
:10148000E0210428086903D020F0040008617047B7
:1014900040F00400FAE7704710B5401EB0F1807FBD
:1014A00001D3012010BD4FF0E02460610F216017CF
:1014B00000F02AFC0020A06107202061002010BD60
:1014C00010B5FFF7E8FF10BD7047704730B590F8D2
:1014D0003C20012A20D0012280F83C20022380F801
:1014E0003D3003685C6824F070045C6003685C68ED
:1014F0000D682C435C6003689C6824F080049C6049
:1015000003689C6849680C439C6080F83D2000217A
:1015100080F83C10084630BD022030BD10B50400F4
:1015200003D094F83D0010B107E0012010BD002069
:1015300084F83C00204600F00DF8022084F83D00BD
:10154000211D206800F0D2FC012084F83D0000201D
:1015500010BD000008B51E4A01681E4891420ED118
:10156000816941F4006181618069002200F40060BA
:10157000009011461920FFF771FB192013E0B1F11B
:10158000804F14D0144A914220D1C16941F0020128
:10159000C161C069002200F00200009011461D20C8
:1015A000FFF75CFB1D20BDE80840FFF74BBBC1699E
:1015B00041F00101C161C069002200F0010000900A
:1015C00011461C20FFF74AFB1C20ECE708BD000079
:1015D000002C0140001002400004004070B5044699
:1015E00090F83C00012817D0012584F83C500220D7
:1015F00084F83D002068826822F0770222F47F425E
:1016000082600868502837D00DDC202859D005DCCE
:1016100088B3102841D151E0022070BD302853D04A
:1016200040283AD13FE060282ED070280BD0B0F58A
:10163000805F03D0B0F5005F2FD110E02068816893
:1016400021F0070115E0CB68D1E90121206800F005
:1016500086FC2168886840F0770088601DE0CB68D0
:10166000D1E90121206800F07AFC2068816841F40A
:101670008041816011E01EE0CA684968206800F07E
:1016800023FD5021206806E0CA684968206800F000
:101690002CFD6021206800F06CFC84F83D50002097
:1016A00084F83C0070BDCA684968206800F00CFDF1
:1016B00040212068EFE700212068ECE71021206836
:1016C000E9E720212068E6E730212068E3E770475A
:1016D00070B50446006801694FF00005C9438907E9
:1016E00015D4C168C943890711D4E91E01610120DD
:1016F0002077206880698007204602D0FFF7E7FF47
:1017000004E000F0C1F8204600F043F92577206896
:101710000169C943490717D4C168C943490713D4AC
:101720006FF004010161022020772068806910F4C5
:10173000407F204602D0FFF7CAFF04E000F0A4F883
:10174000204600F026F9257720680169C94309077A
:1017500016D4C168C943090712D46FF008010161AA
:10176000042020772068C0698007204602D0FFF758
:10177000AEFF04E000F088F8204600F00AF9257773
:1017800020680169C943C90617D4C168C943C9069D
:1017900013D46FF010010161082020772068C06920
:1017A00010F4407F204602D0FFF791FF04E000F0E4
:1017B0006BF8204600F0EDF8257720680169C943F1
:1017C000C90708D1C168C943C90704D1891E01618D
:1017D000204600F0F7F820680169C943090609D4DA
:1017E000C168C943090605D46FF080010161204634
:1017F000FFF76AFE20680169C943490609D4C16838
:10180000C943490605D46FF040010161204600F04C
:10181000DAF820680169C94389060BD4C168C94355
:10182000890607D46FF0200101612046BDE87040B1
:10183000FFF74BBE70BD00001FB5016802240F48C2
:10184000B1F1804F13D00E4A91420FD1C021CDE9A2
:10185000001469460394FFF781F80320CDE90004E2
:1018600069460848CDF80C40FFF778F81FBD0F21F6
:10187000CDE9001469460394F6E700000008014032
:1018800000040040000C0140704770B5044690F819
:101890003C000D4601280DD0012684F83C60022052
:1018A00084F83D0042B1042A18D0082A2AD00C2A14
:1018B0004DD139E0022070BD206800F063FB206844
:1018C000816941F0080181612068816921F004018A
:1018D0008161206881692A69114311E0206800F064
:1018E00079FB2068816941F4006181612068816928
:1018F00021F480618161206881692A6941EA0221BD
:10190000816124E0206800F091FB2068C16941F00A
:101910000801C1612068C16921F00401C16120682A
:10192000C1692A69114311E0206800F0ABFB20680F
:10193000C16941F40061C1612068C16921F480611D
:10194000C1612068C1692A6941EA0221C16184F844
:101950003D60002084F83C0070BD10B5040003D049
:1019600094F83D0010B107E0012010BD002084F87C
:101970003C00204600F00CF8022084F83D00211DB8
:10198000206800F0B3FA012084F83D00002010BD6B
:101990007047704710B504460068012200F0D4FA81
:1019A00007492068884203D1416C41F400414164F9
:1019B0002068016841F001010160002010BD0000B5
:1019C000002C014070477047FEE700002DE9F0470A
:1019D0002C4F2D4D002407F1840A07F1240800BF85
:1019E00057F8240000283BDD401E47F824000AEB8E
:1019F000C400814608EBC4060CC8D6E90001FEF716
:101A0000DFFB00221346FEF7F3FC06D2D6E9000105
:101A1000D9E90023FEF7D4FB01E000200146C6E926
:101A20000001D6E90023204600F0B6F9D8E900010C
:101A30000022164BFEF7C4FC02D26868062803D0C9
:101A40006868052802D017E0072012E0D8E90001F5
:101A500000220F4BFEF7B4FC0ED2012028700BE0E1
:101A60006868082802D0092802D005E0092000E0B3
:101A70000820287000F0DCFB641C082CB0DBBDE8FB
:101A8000F0870000040100200000002000006E40EC
:101A900000A8A64070B516460D460446082813DA7D
:101AA0000A4840F824502046FEF76EFE324629468A
:101AB00000F0ACFB054A203202EBC402C2E900018F
:101AC0000248643840F8246070BD000068010020BE
:101AD00070B51F4886B0816941F01001816181694C
:101AE00001F010010491816941F020018161816957
:101AF00001F020010491816941F004018161816953
:101B000001F004010491816941F00801816180695B
:101B1000104E00F008004FF40045049000222946C2
:101B20003046FFF702F800241020CDE90004694692
:101B300030460294FEF712FF01200095CDE9010422
:101B40000220039069463046FEF708FF06B070BDDC
:101B5000001002400008014010B5154886B0134936
:101B600001604FF47A710024C0E901142821C1609A
:101B70004FF40071C0E904148461FFF7CFFC00B199
:101B8000FEE74FF48050009069460948FFF726FDB4
:101B900000B1FEE72020CDE9040404A90448FFF7C2
:101BA00095FC002800D0FEE706B010BD002C0140D7
:101BB0004400002010B528488EB04FF0804100242A
:101BC000C0E900144EF66021C0E9024180210461A1
:101BD0008161FFF7A3FC00B1FEE74FF4805007904E
:101BE00007A91D48FFF7FAFC00B1FEE71A48FFF706
:101BF000B4FE00B1FEE70B940BA917480C94FFF755
:101C000065FC00B1FEE76020CDE9000402940022EB
:101C1000694611480494FFF738FE00B1FEE704203E
:101C20000246049069460C48FFF72FFE00B1FEE71C
:101C3000082269460848FFF728FE00B1FEE70C229B
:101C400069460548FFF721FE00B1FEE70248FFF7AD
:101C5000F3FD0EB010BD00008400002010B5284830
:101C60008EB026490024C0E900144EF66021C0E978
:101C70000241802104618161FFF750FC00B1FEE761
:101C80004FF48050079007A91D48FFF7A7FC00B14B
:101C9000FEE71B48FFF761FE00B1FEE70B940BA9BE
:101CA00017480C94FFF712FC00B1FEE76020CDE965
:101CB0000004042004900022694602941048FFF7B3
:101CC000E4FD00B1FEE7042269460D48FFF7DDFDA3
:101CD00000B1FEE7082269460948FFF7D6FD00B1CA
:101CE000FEE70C2269460648FFF7CFFD00B1FEE78C
:101CF0000348FFF7A1FD0EB010BD00000004004036
:101D0000C4000020FEE770470907090E002806DA24
:101D100000F00F0000F1E02080F8141D704700F182
:101D2000E02080F800147047704770B50446FEF755
:101D300001FF05464FF47A7606E0FEF7FBFE401BF6
:101D4000B04201D9032070BD206840688006F4D5F8
:101D50002068416841F010014160002070BD000022
:101D600070B504460068416821F010014160FEF73B
:101D7000E1FE05464FF47A7607E000BFFEF7DAFE93
:101D8000401BB04201D9032070BD20684068800626
:101D9000F4D5002070BD704710B5044610461946B2
:101DA00000F0AAFCFEF7DAFA0F49104A082C886105
:101DB000A2F140011268096806D2DFE804F00406C7
:101DC000080A0C0E1012106410BD486310BD906319
:101DD00010BDD06310BD086410BDC86310BD88631A
:101DE00010BD506310BD000000000020C4000020A2
:101DF00010B5FEF7A5FEBDE81040FFF761BB70B55A
:101E000094B00920012400904FF480300025049400
:101E10000694CDE901050226CDE907604FF4402084
:101E200009906846FFF722F900B1FEE70F20CDE9DF
:101E30000A064FF48060CDE90C5001210AA80E95E6
:101E4000FFF71EF800B1FEE74FF40070CDE90F4038
:101E50000FA8FEF79FFF00B1FEE7FFF7BBF84FF4B6
:101E60007A71B0FBF1F0FFF717FB0420FFF707FBD7
:101E700000221146501EFEF7F1FE14B070BD0000A6
:101E80000D48016841F00101016041680B4A1140B1
:101E9000416001680A4A11400160016821F4802113
:101EA0000160416821F4FE0141604FF41F0181602F
:101EB0000449C00308607047001002400000FFF8AA
:101EC000FFFFF6FE08ED00E00148FFF701BC00004F
:101ED000440000200148FFF7FBBB00008400002005
:101EE0000148FFF7F5BB0000C400002070B5026890
:101EF000134B144C4FF08046984203D0B04201D0AF
:101F0000A04203D122F070054A682A43984203D0C8
:101F1000B04201D0A04203D122F44074CA682243E7
:101F200022F080044A69224302608A68C2620A6819
:101F30008262984201D1096901630121416170BD4A
:101F4000002C01400004004010B50123046A8B40BE
:101F50009C430462036A8A401343036210BD10B5B8
:101F6000846842EA032224F47F440A4322438260C5
:101F700010BD826822F070020A4342F007018160BE
:101F80007047000030B5026A22F001020262026A64
:101F90004368846924F073050C682C4322F0020521
:101FA0008A682A430A4DA8420BD122F00805CA6864
:101FB00023F440732A434D6922F004021D438B69C8
:101FC0002B434360846149684163026230BD000075
:101FD000002C014030B5026A22F010020262026A4F
:101FE000436884690D6824F4E64444EA05248D6856
:101FF00022F0200242EA05120B4DA8420ED1CD6814
:1020000022F0800242EA05124D6923F4406343EA5C
:1020100085038D6922F0400243EA850343608461B1
:1020200049688163026230BD002C014030B5026A0C
:1020300022F480720262036A4268C46923F4007366
:1020400024F073050C682C438D6843EA05230C4D7E
:10205000A8420ED1CD6823F4006343EA05234D69FD
:1020600022F4405242EA05128D6923F4806342EA69
:1020700005124260C4614968C163036230BD00005B
:10208000002C014030B5026A22F480520262046AD8
:102090004268C3690D6823F4E64343EA05238D686B
:1020A00024F4005444EA0534064DA84204D14D6995
:1020B00022F4804242EA85124260C36149680164A9
:1020C000046230BD002C014010B5036A046A24F09C
:1020D00001040462846924F0F00444EA021423F049
:1020E0000A020A438461026210BD10B5036A23F03C
:1020F000100303628369046A23F4704343EA0232E3
:1021000024F0A00343EA01118261016210BDFEE7E1
:1021100002E008C8121F08C1002AFAD170477047B0
:10212000002001E001C1121F002AFBD1704700000E
:102130002DE9F041C1F30A52A2F2FF362F4A304B8B
:102140000D460446142E2FDA002E12DAFEF738F868
:1021500000221346FEF74CF94CD2002DBCBF4FF0C5
:102160000045002446DB55EA040018BF254D19D16F
:1021700040E0DFF894C02CFA06F705EA070C5CEAA9
:10218000040C08BFBDE8F081FEF71AF800221346E0
:10219000FEF72EF92ED2002D03DD4FF48010F04013
:1021A0000544BD43002425E0332EC8BFBDE8F081BF
:1021B000A6F1140C4FF0FF3727FA0CF73C4208BF8A
:1021C000BDE8F081FEF7A0F800221346FEF710F9F3
:1021D00010D2002D0DDD142E08BF6D1C09D0C6F1E4
:1021E0003400012101FA00F02044A04238BF6D1CE8
:1021F0000446BC4329462046BDE8F0819C75008812
:102200003CE4377E0000F03FFFFF0F0070B506464C
:102210000D461046FEF77BF80446A81BFEF777F83C
:102220002146FDF78FFFBDE87040FEF7B6B800000D
:102230002DE9F05F644CDFF89881DFF890B12178E8
:1022400000254FF4FA7640F2DC59A8F1400040F640
:10225000B83740F6AC5A0A2910D2DFE801F0051170
:102260001E2D3C4C6E7B88A7002732460021384645
:10227000FFF710FC7F1C082FF7DB6560BDE8F09FBF
:1022800000254A4639462846FFF704FC6D1C082DF8
:10229000F7DB0120606064202BE000254FF4E1674C
:1022A000394632462846FFF7F5FB6D1C082DF7DB53
:1022B000022060603C201CE0002540F21A473946AD
:1022C00032462846FFF7E6FB6D1C082DF7DB03209E
:1022D000606023200DE000254FF4E1773946324657
:1022E0002846FFF7D7FB6D1C082DF7DB0420606044
:1022F0000F206061C2E72570DFF8D8900025064600
:10230000962048F82500334A06EBC5000021C0E9B5
:1023100000124B460A462846FFF73EFD6D1C082D6D
:10232000EEDB00255E46324639462846FFF7B2FB13
:102330006D1C082DF7DB052017E0257000255E4693
:10234000324600212846FFF7A5FB6D1C082DF7DB60
:1023500006200AE0257000254A4600212846FFF79E
:1023600099FB6D1C082DF7DB0720606086E7C146EE
:1023700000268046002108EBC60049F82650C0E937
:1023800000110A460B463046FFF706FD761C082E64
:10239000F0DBB846002657463A4641463046FFF73E
:1023A00079FB761C082EF7DB08200AE0002657464A
:1023B0003A4600213046FFF76DFB761C082EF7DB0E
:1023C00009206060257059E700000020A0BB0D00C7
:1023D0006801002000C062400025FEF7B9FBFFF74E
:1023E0000EFDFFF775FBBD48BB490160691E4160EA
:1023F0004FF480718160FEF7BBFF00B1FEE7FFF78D
:10240000ABFBFFF7D7FBFFF729FCB5480068B54EDB
:10241000DFF8D482A6F1400A4FF0000BB0B3642875
:1024200002D94FF0640000E002D14FF0010209E050
:102430003C2804D0232804D00F2828D004E002220E
:1024400000E0032288F8002040F6B831002400FBA9
:1024500001F96421B9FBF1F0FDF773FFFFF768FEA6
:1024600006460F46FDF77AFF01469E4832463B4638
:1024700040F824100AEBC4012046C1E90067FFF7C9
:102480008BFC641C082CE4DB012715E001E004222E
:10249000D8E7002088F800B0014600F02FF90021AD
:1024A0005446002204EBC10046F82120C0E9002276
:1024B000491C0829F5DB0027884800215430FFF724
:1024C00069FA864804215430FFF764FA83480821EA
:1024D0005430FFF75FFA81480C215430FFF75AFA65
:1024E0007E4800219430FFF755FA7C48042194304F
:1024F000FFF750FA794808219430FFF74BFA7748F4
:102500000C219430FFF746FA76490020643901F136
:1025100084025E4602EBC00C41F820600023CCE947
:102520000033401C0828F5DBDFF8C0914FF0050BA5
:1025300044460120FEF74EF94FF40041C846484694
:10254000FEF7EFFA60680A2801D0FFF73FFA102182
:102550004046FEF7E1FA08B1266109E02069401C17
:102560002061FA2803DD4FF0FA00206188E07DDA6F
:10257000E06800F10100A0F58061E060E23943D03D
:10258000A0F5C061D63959D0A0F54061B239D0D19B
:102590000020FEF7F9F8564D80460020294600F04D
:1025A000ADF89620FEF716F90020014600F0A6F8D7
:1025B0009620FEF70FF90020294600F09FF896209C
:1025C000FEF708F90020014600F098F89620FEF783
:1025D00001F90020294600F091F89620FEF7FAF85C
:1025E0000020014600F08AF89620FEF7F3F84046F6
:1025F000FDF796FE00F082F80325C7B300210846D8
:10260000FEF7A6F8002794E70020FEF7BDF80500C6
:1026100012D00020364900F071F80A20FEF7DAF8EF
:102620000020014600F06AF80A20FEF7D3F8284699
:10263000FDF776FE00F062F801257AE70020FEF74C
:10264000A3F8054600202A4900F058F80A20FEF7B2
:10265000C1F80020014600F051F80A20FEF7BAF850
:102660002846FDF75DFE00F049F801E008E001E0D2
:1026700002255EE700206169FEF76AF8012758E746
:10268000012D14D0022D20D0032D22D0E0680A287D
:102690001FDD606808281AD0092818D02078401C4F
:1026A000C0B2B0FBFBF20BFB1200207008E0DAE9CD
:1026B000000100220F4BFDF783FE04D284F800B026
:1026C000FFF7B6FD05E00620EFE70820EDE70A205A
:1026D00060600025E6602CE7002800403000002004
:1026E0000070000868010020000000200008014080
:1026F0000070A74000000840FDF748BF10B5FFF785
:10270000FBFFFDF72BFE032800DA002009490A68C9
:102710001064A1F14002136858630B6898630B685A
:10272000D86313681864D8631268906309684863B3
:1027300010BD0000C40000200000000000000000E8
:102740000102030406070809000000000102030457
:102750007027000800000020300000001021000851
:10276000A027000830000020B80500002021000844
:102770000000000000000000000000000000000059
:10278000F401000000000000000000000000000054
:1027900001000000100000000000000000A24A0438
:04000005080000ED02
:00000001FF
